:020000040000FA
:1000000080312D28FF3FFF3F803120007F08F30023
:10001000111C0B280C282A2811103A309700413067
:1000200096000130F2007208CD070130F20072082C
:10003000CE070130C0070030C13D0130B6070030A7
:10004000B73D0130B8070030B93D0130BA07003084
:10005000BB3D2A287308FF00090088018831AF28BA
:1000600020000E08F4000430F436890B342874089C
:100070004B0603193C283D28DA2B0E08F400043007
:10008000F436890B40287408F5007508CF006C1D04
:100090004A284B28BA2BF329F3294F08013A031DAC
:1000A000522853286F280130A0070030A13D0130AD
:1000B000A2070030A33D0130A4070030A53D701D0C
:1000C00062286328072A0130F4007408C207A201DD
:1000D000A3010130A0020030A13B072A072A4F08E4
:1000E000043A031D74287528072A0130A007003040
:1000F000A13D0130A2070030A33D0130A402003031
:10010000A53BF01F84288528072A0130F4007408D5
:10011000C207A201A3010130A0020030A13B072ABF
:10012000072A072A072A4F08053A031D9828992805
:10013000B5280130A0070030A13D0130A2070030F2
:10014000A33D0130A4070030A53D701DA828A928B3
:10015000072A0130F4007408C207A201A30101308C
:10016000A0020030A13B072A072A4F08063A031DC8
:10017000BA28BB28072A0130A0070030A13D013072
:10018000A2070030A33D0130A4020030A53BF01FC0
:10019000CA28CB28072A0130F4007408C207A2013C
:1001A000A3010130A0020030A13B072A072A072A39
:1001B000072A4F08043A031DDE28DF28FB280130F8
:1001C000A0070030A13D0130A2070030A33D01305F
:1001D000A4070030A53D701DEE28EF28072A013046
:1001E000F4007408C207A201A3010130A00200308C
:1001F000A13B072A072A4F08023A031D00290129BB
:10020000072A0130A0070030A13D0130A2070030CD
:10021000A33D0130A4020030A53BF01F1029112995
:10022000072A0130F4007408C207A201A3010130BB
:10023000A0020030A13B072A072A072A072A4F08F5
:10024000063A031D2429252941290130A007003041
:10025000A13D0130A2070030A33D0130A4070030CA
:10026000A53D701D34293529072A0130F400740892
:10027000C207A201A3010130A0020030A13B072A5E
:10028000072A4F08033A031D46294729072A013048
:10029000A0070030A13D0130A2070030A33D01308E
:1002A000A4020030A53BF01F56295729072A013028
:1002B000F4007408C207A201A3010130A0020030BB
:1002C000A13B072A072A072A072A4F08023A031DDB
:1002D0006A296B2987290130A0070030A13D013030
:1002E000A2070030A33D0130A4070030A53D701DDA
:1002F0007A297B29072A0130F4007408C207A20179
:10030000A3010130A0020030A13B072A072A4F08B1
:10031000013A031D8C298D29072A0130A0070030DE
:10032000A13D0130A2070030A33D0130A4020030FE
:10033000A53BF01F9C299D29072A0130F400740871
:10034000C207A201A3010130A0020030A13B072A8D
:10035000072A072A072A4F08033A031DB029B129A3
:10036000CD290130A0070030A13D0130A2070030A7
:10037000A33D0130A4070030A53D701DC029C1294F
:10038000072A0130F4007408C207A201A30101305A
:10039000A0020030A13B072A072A4F08053A031D97
:1003A000D229D329072A0130A0070030A13D01300E
:1003B000A2070030A33D0130A4020030A53BF01F8E
:1003C000E229E329072A0130F4007408C207A201D8
:1003D000A3010130A0020030A13B072A072A072A07
:1003E000072AC201072A4B08013A0319AB29033A2D
:1003F00003191F29013A03196529073A031993289C
:10040000013A03194D28033A0319D928F1290E0896
:10041000F4000430F436890B0A2A7408F5007508D4
:10042000CB00DA2BBA2B4F08043A031D182A192ADD
:10043000362A0130A0070030A13D0130A20700306C
:10044000A33D8E100130A4070030A53D701D292A60
:100450002A2ACE2B0130F4007408C207A201A3019E
:100460000130A0020030A13BCE2BCE2B4F08013A29
:10047000031D3B2A3C2ACE2B0130A0070030A13DB2
:100480000130A2070030A33D0130A4020030A53B9B
:10049000F01F4B2A4C2ACE2B0130F4007408C207FF
:1004A000A201A3010130A0020030A13BCE2BCE2B34
:1004B000CE2BCE2B4F08063A031D5F2A602A7C2ADA
:1004C0000130A0070030A13D0130A2070030A33D5C
:1004D0000130A4070030A53D701D6F2A702ACE2B75
:1004E0000130F4007408C207A201A3010130A00288
:1004F0000030A13BCE2BCE2B4F08053A031D812A9D
:10050000822ACE2B0130A0070030A13D0130A20786
:100510000030A33D0130A4020030A53BF01F912A1A
:10052000922ACE2B0130F4007408C207A201A30165
:100530000130A0020030A13BCE2BCE2BCE2BCE2BF8
:100540004F08023A031DA52AA62AC22A0130A00795
:100550000030A13D0130A2070030A33D0130A407C7
:100560000030A53D701DB52AB62ACE2B0130F4000F
:100570007408C207A201A3010130A0020030A13B10
:10058000CE2BCE2B4F08043A031DC72AC82ACE2BE8
:100590000130A0070030A13D0130A2070030A33D8B
:1005A0000130A4020030A53BF01FD72AD82ACE2B59
:1005B0000130F4007408C207A201A3010130A002B7
:1005C0000030A13BCE2BCE2BCE2BCE2B4F08033AA7
:1005D000031DEB2AEC2A082B0130A0070030A13DB7
:1005E0000130A2070030A33D0130A4070030A53D33
:1005F000701DFB2AFC2ACE2B0130F4007408C207C0
:10060000A201A3010130A0020030A13BCE2BCE2BD2
:100610004F08063A031D0D2B0E2BCE2B0130A007E1
:100620000030A13D0130A2070030A33D0130A402FB
:100630000030A53BF01F1D2B1E2BCE2B0130F400EC
:100640007408C207A201A3010130A0020030A13B3F
:10065000CE2BCE2BCE2BCE2B4F08013A031D312BA8
:10066000322B4E2B0130A0070030A13D0130A207F4
:100670000030A33D0130A4070030A53D701D412B83
:10068000422BCE2B0130F4007408C207A201A30153
:100690000130A0020030A13BCE2BCE2B4F08023AF6
:1006A000031D532B542BCE2B0130A0070030A13D4E
:1006B0000130A2070030A33D0130A4020030A53B69
:1006C000F01F632B642BCE2B0130F4007408C2079B
:1006D000A201A3010130A0020030A13BCE2BCE2B02
:1006E000CE2BCE2B4F08053A031D772B782B942B5E
:1006F0000130A0070030A13D0130A2070030A33D2A
:100700000130A4070030A53D701D872B882BCE2B10
:100710000130F4007408C207A201A3010130A00255
:100720000030A13BCE2BCE2B4F08033A031D992B53
:100730009A2BCE2B0130A0070030A13D0130A2073B
:100740000030A33D0130A4020030A53BF01FA92BCF
:10075000AA2BCE2B0130F4007408C207A201A3011A
:100760000130A0020030A13BCE2BCE2BCE2BCE2BC6
:10077000C201CE2B4B08013A0319722B033A03191D
:10078000E62A013A03192C2B073A03195A2A013A8F
:100790000319132A033A0319A02AB82B0E08F400F0
:1007A0000430F436890BD12B7408F5007508CB00A2
:1007B000DA2BDA2B08002F3023008C008D019001FA
:1007C0008F01F83021008E00FC308D0002308F0048
:1007D000023020008F008E018C013F3021008C0000
:1007E000073090000730200090003C302500930037
:1007F0001E109E10BC3020009B009C101C101C156D
:10080000181698169811981318133A30970041301B
:100810009600210011100B170730950020006D1471
:1008200070108D312F2583318831D52083318A3165
:10083000772283318931732183318A3117228331C1
:100840008931C121833120008D1E272C282C742C46
:10085000FA30E9006908C900C908031D302C312CA1
:10086000332C3B2C3B2C0130C902C908031D392C09
:100870003A2C332C3B2C6430E9006908C900C908C4
:10088000031D432C442C462C4E2C4E2C0130C90207
:10089000C908031D4C2C4D2C462C4E2CFA30E90077
:1008A0006908C900C908031D562C572C592C612C06
:1008B000612C0130C902C908031D5F2C602C592C22
:1008C000612C6430E9006908C900C908031D692C5E
:1008D0006A2C6C2C742C742C0130C902C908031DBD
:1008E000722C732C6C2C742C2100111430302000CD
:1008F000A4007530A5002408C93EB200FF30253D94
:10090000B3002408913EBC000030253DBD007016A8
:1009100070150030CE00E900EA016908C0006A08DD
:10092000C1004008EB006B08CD00C2010630A600F4
:100930000030A7000C30E9006908D000B601B7010B
:100940006C150D1EA42C6C112000AA01AB018B1795
:1009500018144708E9006908C5000E08E9000430CA
:10096000E936890BB02C6908EA006A08CB00B82C7C
:100970008031302083318E317F268331863141268C
:1009800083318831D5208331853136258331711DFE
:10099000CA2CCB2CD32C711DCE2CCF2CD32C8D312B
:1009A000CF2583312F2D711CD62CD72CDF2C711C19
:1009B000DA2CDB2CDF2C8A31D72283312F2DF11C4E
:1009C000E22CE32CEB2CF11CE62CE72CEB2C8C31ED
:1009D000202483312F2DF01EEE2CEF2CF72CF01E4F
:1009E000F22CF32CF72C8731462783312F2DF01D65
:1009F000FA2CFB2C032DF01DFE2CFF2C032D8B312C
:100A0000B12383312F2D701E062D072D0F2D701E43
:100A10000A2D0B2D0F2D8F313E2783312F2D711F66
:100A2000122D132D1B2D711F162D172D1B2D8C31E3
:100A30009B2483312F2D2000EC1C1F2D202D2F2DCA
:100A4000EC1C232D242D2F2D8831FC2083312F2DBC
:100A50002F2D2F2D2F2D2F2D2F2D2F2D2F2D883159
:100A600089208331B82CB82C80312D28F11E392DE6
:100A70003A2DD92D20000C1E3E2D3F2D502D8F18C4
:100A8000422D432D472D8D1E462D472D502D101DD7
:100A90004A2D4B2D502D90184E2D4F2D542D502D4D
:100AA000B601B701F014542D8D1E572D582DBC2DB5
:100AB0008D1D5B2D5C2D8B2D37083F02031D622D94
:100AC00036083E020318652D662D682D7010682DBE
:100AD0003E08233EF40000303F3DF5003708750224
:100AE000031D742D360874020318772D782DD92D27
:100AF0000630A6000030A700F0167015F112C001F4
:100B0000C1010C30F4007408D0004708F4007408E8
:100B1000C500D92DD92D00303702293003193602EE
:100B2000031C932D942DAB2DF01C972D982DAB2DE0
:100B30000630A6000030A700F0167015F010F11274
:100B4000C001C1010B30F4007408D0004708F40064
:100B50007408C500AB2D003037020E300319360281
:100B6000031CB32DB42DD92DF01CB72DB82DD92DC4
:100B70007010D92DD92DD92D003037020D30031921
:100B80003602031CC42DC52DD92D0630A600003019
:100B9000A700F0167015F112C001C1010B30F4006E
:100BA0007408D0004708F4007408C500D92DD92D69
:100BB000D92D701FDC2DDD2D122E20000C1EE12DF5
:100BC000E22DF32D8F18E52DE62DEA2D8D1EE92D52
:100BD000EA2DF32D101DED2DEE2DF32D9018F12D96
:100BE000F22DF62DF32DB601B701F62D00303702A8
:100BF000653003193602031CFE2DFF2D122E063020
:100C0000A6000030A700F01670157013C001C101D6
:100C10000C30F4007408D0004708F4007408C500D4
:100C2000122E122EF11E152E162E402E20000D19FA
:100C30001A2E1B2E402E6C1D1E2E1F2E2D2E0E0822
:100C4000F4000430F436890B222E74080907523E52
:100C50008600870101088F003B2E0E08F400043047
:100C6000F436890B302E74080907A03E86008701F0
:100C700001088F003B2E440825009100402E402E95
:100C80000800711F442E452EE32E20008F18492E98
:100C90004A2E582E8D1A4D2E4E2E582E8E10711310
:100CA000F115250091012000BA01BB01C201582EA7
:100CB000101D5B2E5C2E602E10185F2E602E6F2E86
:100CC0008E1D632E642E6F2E8E107113F11525006C
:100CD00091012000BA01BB01C2016F2E6F2E0C1AC8
:100CE000722E732E7E2EC808031D772E782E7E2E30
:100CF000B601B701C8010314C80D7E2E00303702BB
:100D0000023003193602031C862E872EA02E4808B7
:100D1000013A031D8C2E8D2EA02E0C1A902E912E92
:100D20009B2E8E107113F115250091012000BA0140
:100D3000BB01C801A02EC801B601B701A02EA02E8C
:100D400007302502D030031924020318A82EA92E3B
:100D5000BC2E3208303EB2007530333DB30024085B
:100D6000303EA4007530253DA5003C08303EBC0057
:100D700075303D3DBD00BC2E25083D02031DC22E31
:100D800024083C020318C52EC62EE32E0D1DC92EC5
:100D9000CA2EE32E8D1ECD2ECE2EE32E25009101E0
:100DA000F11506302000A6000030A7007115711360
:100DB000C001C1010B30F4007408D000F017BA0173
:100DC000BB01E32EE32EF11DE62EE72E332F20008C
:100DD00030083C07F40031083D3DF500330875024A
:100DE000031DF42E320874020318F72EF82E1A2F62
:100DF00000303B020B3003193A02031C002F012F75
:100E0000032F7014032F00303B02193003193A02EC
:100E1000031C0B2F0C2F332F0630A6000030A70029
:100E20007115F111C001C101C2016D14F017C801A3
:100E3000332F332F00303B021B3003193A02031CBF
:100E4000222F232F332F0630A6000030A700711564
:100E5000C001C101C201F017C8016D14F111711672
:100E6000332F332F332F711E362F372F452F00305E
:100E700020003B02793003193A02031C402F412F16
:100E8000452F70147112452F452F080020006C1D4E
:100E90004A2F4B2F592F0E08F4000430F436890BDB
:100EA0004E2F74080907A03E8600870101088F00B5
:100EB000672F0E08F4000430F436890B5C2F740899
:100EC0000907523E8600870101088F00672F5008EE
:100ED000F400F5012D087502031D702F2C08740213
:100EE0000318732F742FAA2F390838040319792F88
:100EF0007A2F812F0130F4007408D007B801B901AE
:100F0000812F4308233EF400003003180130F50020
:100F10007508803AF60080307602031D912F500844
:100F200074020318942F952FAA2F20003708360437
:100F300003199B2F9C2FA42F5008043EF400740823
:100F4000D000B601B701A42F4608F4007408C5000C
:100F5000AA2FAA2F20003C082E07F4003D082F3DA1
:100F6000F50025087502031DB72F24087402031825
:100F7000BA2FBB2FEA2F00302702053003192602B3
:100F8000031CC32FC42FC92F5008510725009100FF
:100F9000F72F6C142408913EBC000030253DBD00A5
:100FA0000B30F4007408D000F0127011250091018C
:100FB0007115F0172000AA01AB0170140630A600CD
:100FC0000030A700C001C1014708F4007408C50043
:100FD000F72FF72FF012F0150630A6000030A7000B
:100FE000C001C1014708F4007408C500F72F0800CC
:100FF000640080010131890BF92F0034FF3FFF3F6E
:10100000FF3FFF3FFF3FFF3FFF3FFF3FFF3FFF3FF0
:10101000FF3FFF3FFF3FFF3FFF3FFF3FFF3FFF3FE0
:10102000FF3FFF3FFF3FFF3FFF3FFF3FFF3FFF3FD0
:10103000FF3FFF3FFF3FFF3FFF3FFF3FFF3FFF3FC0
:10104000FF3FFF3FFF3FFF3FFF3FFF3FFF3FFF3FB0
:10105000FF3FFF3FFF3FFF3FFF3FFF3FFF3FFF3FA0
:10106000FF3FFF3FFF3FFF3FFF3FFF3FFF3FFF3F90
:10107000FF3FFF3FFF3FFF3FFF3FFF3FFF3FFE00C0
:1010800012001E00FE0B4028003400340034A83447
:101090000034C4340034A434003470340034683470
:1010A0000034D03400340034003400340034D03400
:1010B00000346834003470340034A4340034C43450
:1010C0000034A834003400340034F801F9016828F1
:1010D000741C6B286C2870287608F8077708F93D8F
:1010E0000130F635F70D890B71280130F536F40C17
:1010F000890B762875087404031D7F2880286828CA
:1011000081287908F501F5077808F401F4078828A3
:101110000800F11B8C288D28AE28701D902891287E
:10112000AE2820000C1E95289628A628901C9928E9
:101130009A28A628101D9D289E28A6288F18A12829
:10114000A228AE288D1AA528A628AE28F117F012DD
:101150007012F015C201AE28AE28AE280800F001CA
:10116000F101EC01203084000030850032308731FD
:10117000F827883155308400883085005230860049
:1011800000308700103088313F208831453084009E
:1011900088308500A030860000308700103088310C
:1011A0003F20883120008331DB2B20008D1ED92881
:1011B000DA28E3287018DD28E02820000E14E22841
:1011C00020000E10EB286D18E628E92820000E14E8
:1011D000EB2820000E10711FEE28F12820008D143E
:1011E000F32820008D10711BF628F92820008E149A
:1011F000FB2820008E10080020008F1C00290129E8
:101200000F29EC100630A6000030A7007016C001B0
:10121000C1010B30F4007408D000C2010F290C1E6C
:10122000122913291B29901C162917291B2910196B
:101230001A291B292A29EC100630A6000030A70025
:101240007115C001C1010B30F4007408D000F01713
:1012500070147011250091010800F901FA01750858
:1012600074040319342935296B29FB010314FB0D80
:1012700043290130F435F50D890B3A290130F80086
:101280007808FB074329F51F4629472939294929A9
:1012900049290130F935FA0D890B4A297508770279
:1012A000031D542974087602031C572958295E2906
:1012B0007408F6027508F73B79145E290130F5369B
:1012C000F40C890B5F290130FB02031D6829692991
:1012D00049296B296B297A08F501F5077908F4018A
:1012E000F40772290800A03021009E009D011D1402
:1012F00000000000000000000000000000000000EE
:1013000000000000000000000000000000000000DD
:1013100000000000000000000000000000000000CD
:10132000000000000000000021009D1497299D1876
:101330009A299B2997299C291C08F400F501740817
:101340002000B0007508B1003008F500F401740801
:10135000B0007508B10021001B08F400F501740805
:101360002000B0077508B13D3008903EB000013054
:10137000313DB1003108AF01AF073008AE01AE0713
:101380000800A03021009E0011309D0000000000E8
:10139000000000000000000000000000000000004D
:1013A000000000000000000000000000000000003D
:1013B000000000000000000000000000000000002D
:1013C0000000000021009D14E5299D18E829E92965
:1013D000E529EA291C082000E200E3016208B400C4
:1013E0006308B5003408E300E2016208B400630852
:1013F000B50021001B082000E200E3016208B407E9
:101400006308B53D0A30F4000030F5003508F701F7
:10141000F7073408F601F60789312D218931740860
:101420001A3E2000B4000030753DB50008001030B1
:1014300021009E0005309D0000000000000000001B
:10144000000000000000000000000000000000009C
:10145000000000000000000000000000000000008C
:10146000000000000000000000000000000000007C
:1014700021009D143B2A9D183E2A3F2A3B2A402AE0
:101480001C082000E200E3016208AC006308AD0024
:1014900021001B082000E2000630E236890B4D2AAD
:1014A0006208E300E4012D08E6002C08E5000230A4
:1014B000E535E60D890B582A63086507AC0064081A
:1014C000663DAD000A30F4000030F5002D08F7014C
:1014D000F7072C08F601F60789312D218A317408A7
:1014E000103E2000AC000030753DAD00080010300B
:1014F00021009E000D309D00000000000000000053
:1015000000000000000000000000000000000000DB
:1015100000000000000000000000000000000000CB
:1015200000000000000000000000000000000000BB
:1015300021009D149B2A9D189E2A9F2A9B2AA02A3F
:101540001C082000E200E3016208BE006308BF003F
:1015500021001B082000E2000630E236890BAD2A8C
:101560006208E300E4013F08E6003E08E5000230BF
:10157000E535E60D890BB82A63086507BE006408E7
:10158000663DBF003F08F501F5073E08F401F4078A
:101590000330F6000030F700883165208A31740886
:1015A0000A3E2000BE000030753DBF00080020004C
:1015B0006C1DDB2ADC2AEA2A0E08F4000430F4361B
:1015C000890BDF2A74080907523E8600870101084B
:1015D0008F00F82A0E08F4000430F436890BED2A47
:1015E00074080907A03E8600870101088F00F82AC9
:1015F0000B305002031CFD2AFE2A322B3908380416
:101600000319032B042B092B0130D002B801B901B7
:10161000092B3708360403190E2B0F2B2D2B4308EB
:10162000193EF400003003180130F5007508803AC7
:10163000F60080307602031D1F2B50087402031839
:10164000222B232B2D2B20005008FA3EF400740887
:10165000D000B601B7012D2B2D2B200050082500FE
:101660009100432B7110F1140630A6000030A70042
:10167000C001C1014708F4007408C5000B30F40034
:101680007408D000432B08002000E301F51F492B0C
:101690004A2B532BF409F509F40A0319F50AE3015F
:1016A0000314E30D532BF71F562B572B612BF60911
:1016B000F709F60A0319F70A0130F8007808E3067B
:1016C000612BE401E501750874040319682B692B8B
:1016D0009F2BE2010314E20D772B0130F435F50D59
:1016E000890B6E2B0130F8007808E207772BF51F85
:1016F0007A2B7B2B6D2B7D2B7D2B0130E435E50D7B
:10170000890B7E2B75087702031D882B74087602DF
:10171000031C8B2B8C2B922B7408F6027508F73B5D
:101720006414922B0130F536F40C890B932B0130A5
:10173000E202031D9C2B9D2B7D2B9F2B9F2B63086F
:10174000031DA32BA92BE409E509E40A0319E50A03
:10175000A92B6508F501F5076408F401F407B02B1F
:101760000800200050082500910020004308193E81
:10177000F400003003180130F5007508803AF600D7
:1017800080307602031DC62B500874020318C92B43
:10179000CA2BDA2B2000370836040319D02BD12BA3
:1017A000DA2B5008FB3EF4007408D000B601B701F4
:1017B000DA2BDA2B0C3020005002031CE02BE12B3B
:1017C000ED2B390838040319E62BE72BFF2B0130EA
:1017D000D002B801B901FF2BFF2BF01170160630B3
:1017E000A6000030A700C001C1014708F40074083A
:1017F000C5000B30F4007408D000D101FF2B6C1D24
:10180000022C032C112C0E08F4000430F436890B42
:10181000062C74080907A03E8600870101088F0086
:101820001F2C0E08F4000430F436890B142C7408B5
:101830000907523E8600870101088F001F2C08000F
:1018400020006C1D242C252C332C0E08F9000430AC
:10185000F936890B282C79080907523E8600870142
:1018600001088F00412C0E08F9000430F936890B6D
:10187000362C79080907A03E8600870101088F00F1
:10188000412C430850020318462C472C552C39088C
:10189000380403194C2C4D2C552C0130F9007908D3
:1018A000D007B801B901552C552C0030270205305E
:1018B00003192602031C5D2C5E2C722C0330F400ED
:1018C0000030F5005108F900FA017908F6007A08AD
:1018D000F7008B3144238C31740820005007250019
:1018E00091009A2C200025083302031D792C24082E
:1018F000320203187C2C7D2C8C2C2408C93EB200AB
:10190000FF30253DB300F116250091010B30F900A1
:1019100079082000D000952C70172408C93EB20029
:10192000FF30253DB3007010952CF110B601B701C2
:10193000F0139A2C080020006C1D9F2CA02CAE2CBC
:101940000E08E7000430E736890BA32C6708090767
:10195000A03E8600870101088F00BC2C0E08E7001E
:101960000430E736890BB12C67080907523E860020
:10197000870101088F00BC2C0D19BF2CC02C112D24
:101980008D1EC32CC42C112D3C089C3EE700FF305B
:101990003D3DE80068082502031DD02C670824029D
:1019A0000318D32CD42C012D0C30250091000030CD
:1019B000200037020B3003193602031CE02CE12C07
:1019C000F12C893173218C318931C1218C318A31DB
:1019D00017228C318D312F258C318A3177228C3131
:1019E000F12C003020002702053003192602031CC9
:1019F000FA2CFB2C2E2D50085107250091002E2D7E
:101A00002E2D2830250091002000C001C101063094
:101A1000A6000030A7000B30E7006708D0002E2D8D
:101A20002E2D250091010030200037020B300319C4
:101A30003602031C1C2D1D2D2E2D893173218C3156
:101A40008931C1218C318A3117228C318D312F257A
:101A50008C318A3177228C312E2D2E2D0800A0302A
:101A600021009E0009309D000000000000000000E1
:101A70000000000000000000000000000000000066
:101A80000000000000000000000000000000000056
:101A90000000000000000000000000000000000046
:101AA00021009D14532D9D18562D572D532D582D23
:101AB0001C082000E200E3016208A8006308A900F6
:101AC0002808E300E2016208A8006308A9002100D9
:101AD0001B082000E200E3016208A8076308A93D93
:101AE000C830F4000030F5002908F701F70728088E
:101AF000F601F60789312D218D317408123E200040
:101B0000E2006208C300C830F4000030F500290884
:101B1000F701F7072808F601F60789312D218D31E5
:101B200074080B3E2000E2006208C4003C30F40060
:101B30000030F5002908F701F7072808F601F60735
:101B400089312D218D317408043E2000E2006208A5
:101B5000C6003830F4000030F5002908F701F70717
:101B60002808F601F60789312D218D3174080F3EC2
:101B70002000E2006208C7003230F4000030F500B7
:101B80002908F701F7072808F601F60789312D2102
:101B90008D3174082000E2006208CA0008002000AD
:101BA0003009F4003109F500F40A0319F50A320886
:101BB0007407F6003308753DF70077082502031D0A
:101BC000E32D760824020318E62DE72D0C2E0030B5
:101BD0002702053003192602031CEF2DF02DF52DE9
:101BE0005008510725009100192E70172408C93E8E
:101BF000B200FF30253DB30071114708F4007408AE
:101C0000C50025009101F01370100F30F400740826
:101C10002000D000192E192E711171140630A60063
:101C20000030A700C001C1014708F4007408C500D6
:101C3000192E20006C1D1D2E1E2E2C2E0E08F400B9
:101C40000430F436890B212E74080907523E8600B1
:101C5000870101088F003A2E0E08F4000430F43694
:101C6000890B2F2E74080907A03E86008701010802
:101C70008F003A2E5008F400F50135087502031D57
:101C8000432E340874020318462E472E7E2E390840
:101C9000380403194C2E4D2E542E0130F4007408D4
:101CA000D007B801B901542E370836040319592E4C
:101CB0005A2E7E2E4308233EF400003003180130D4
:101CC000F5007508803AF60080307602031D6A2E12
:101CD0005008740203186D2E6E2E772E20005008C7
:101CE000063EF4007408D000B601B701772E20003C
:101CF0004608F4007408C5007E2E7E2E08000030D1
:101D0000200041020A30031940020318882E892E50
:101D10008F2EC201CE01B801B901D1018F2E003042
:101D200041021230031940020318972E982E9E2E5E
:101D3000D101CD010630A6000030A70004304202D8
:101D4000031CA32EA42EA72EA601A701A72E4D0883
:101D500045020318AC2EAD2EB82E2108A701A70707
:101D60002008A601A607CD01A001A101C201B82E3D
:101D700003304E02031CBD2EBE2E2E2F1A2F1A2FFB
:101D80000330F4007408CC00CE0102304C02031C76
:101D9000CA2ECB2ED72E4A0851020318D02ED12E90
:101DA000D72E0130F4007408D107D72ED72EA20108
:101DB000A3012E2F0330F4007408CC00CE010230B2
:101DC0004C02031CE42EE52EF12E4A0851020318A2
:101DD000EA2EEB2EF12E0130F4007408D107F12E1B
:101DE000F12EA201A3012E2F0330F4007408CC00C1
:101DF000CE0102304C02031CFE2EFF2E0B2F4A0890
:101E000051020318042F052F0B2F0130F400740822
:101E1000D1070B2F0B2FA201A3012E2FCC010314EE
:101E2000CC0DCE01A201A3012E2FCE01A201A30150
:101E3000CC012E2F2308003A03191F2F152F22083B
:101E4000003A0319C02E013A0319DA2E033A031996
:101E5000F42E013A03190E2F152F2E2FCC08031D37
:101E6000322F332F3D2F02305102031C382F392FD0
:101E70003D2F0130D1023D2F3D2F080020006C1D69
:101E8000422F432F512F0E08F4000430F436890BF3
:101E9000462F74080907A03E8600870101088F00BD
:101EA0005F2F0E08F4000430F436890B542F7408A9
:101EB0000907523E8600870101088F005F2F8D1EA3
:101EC000622F632F712F8F18662F672F712FF11BD1
:101ED0006A2F6B2F712FEC14701225009101712F56
:101EE000712F003020002702053003192602031C41
:101EF0007A2F7B2F962F5008510725009100200044
:101F00003D082502031D862F3C0824020318892F53
:101F10008A2FD12F00302B02033003192A02031C11
:101F2000922F932FD12F6D10D12FD12FB601B70142
:101F3000701270113D082502031DA02F3C082402D9
:101F40000318A32FA42FB72F2408913EBC00003004
:101F5000253DBD0071170130AA070030AB3D0B30A5
:101F6000F4007408D000B601B7016D10D12F6C14C5
:101F70007115F0170630A6000030A7002408913E26
:101F8000BC000030253DBD000B30F4007408D000CB
:101F9000C001C101AA01AB01B601B7017014D12F74
:101FA000D12FF11FD42FD52FEB2FF1137115063040
:101FB000A6000030A700C001C1010B30F400740876
:101FC000D00070127011F0177014EC102500910100
:101FD00020006D14EB2F430850020318F02FF12F4F
:101FE000FF2F390838040319F62FF72FFF2F013080
:101FF000F4007408D007B801B901FF2FFF2F0800C3
:10200000FF3FFF3FFF3FFF3FFF3FFF3FFF3FFF3FE0
:10201000FF3FFF3FFF3FFF3FFF3FFF3FFF3FFF3FD0
:10202000FF3FFF3FFF3FFF3FFF3FFF3FFF3FFF3FC0
:10203000FF3FFF3FFF3FFF3FFF3FFF3FFF3FFF3FB0
:020000040001F9
:020000040001F9
:04000E00E23FFF3F8F
:020000040001F9
:08000000FF3FFF3FFF3FFF3F00
:00000001FF
