:08000000803102288731F12F45
:10065E00FE0012001E00FE0B302B0034200018107E
:10066E009701960111101814080001307102003024
:10067E0003197002031C442B452B492BFF30F0004D
:10068E000030F10070082500910008000034053498
:10069E00033404340134063402340034E034A83414
:1006AE00C434A43470346834D034E034E03470345C
:1006BE00D034C434A434A8346834E034F30073085E
:1006CE00F200F20DF20D21001D087206833972063A
:1006DE009D001D142830890B722B21009D149D182E
:1006EE00792B7A2B762B1C08F1001B08F0000800E2
:1006FE00FB01FC018331E923833174087504031D6A
:10070E00892B8A2B8E2B0130FB070030FC3D7C0899
:10071E00803AFA0080307A02031D972B14307B0248
:10072E00031C9A2B9B2B812B0800F401F501701CE6
:10073E00A12BA22BA62B7208F4077308F53D0130EE
:10074E00F235F30D890BA72B0130F136F00C890B26
:10075E00AC2B70087104031DB52BB62B9E2B7508A0
:10076E00F1007408F00008002F3023008C008D017A
:10077E0090018F01F83021008E00FC308D00023088
:10078E008F00023020008F008E018C013F3021003F
:10079E008C0007309000073020009000A030210020
:1007AE009E003C30250093001E08BC3020009B00AC
:1007BE00FF309B00FC309C05E0308F001C15303064
:1007CE0098000800F80120000E087039F7008331F8
:1007DE0035238331082C0C1AF52BF62BFB2B01300D
:1007EE00F4000030F500202C0E087039F90079085D
:1007FE0077060319032C042C082C7908F700013016
:10080E00F8072000111C0C2C0D2CF22B0330833119
:10081E00652383317108F60078087602031C182CC4
:10082E00192C1C2CF401F501202C0230F4000030A0
:10083E00F5000800F401F501700871040319282C65
:10084E00292C562C0130F600332C0130F035F10DE9
:10085E00890B2D2C0130F607F11F362C372C2C2C42
:10086E000130F435F50D890B382C71087302031D18
:10087E00422C70087202031C452C462C4B2C70081F
:10088E00F2027108F33B74140130F136F00C890B4F
:10089E004C2C0130F602031D552C562C372C7508A6
:1008AE00F1007408F00008002000A700003083312A
:1008BE00652384317008F9007108FA00FA36F90CD4
:1008CE00FA36F90C79082000B1007A08B20004302B
:1008DE008331652384317008F9007108FA00FA3605
:1008EE00F90CFA36F90C79082000AA007A08AB0048
:1008FE0000302B02F13003192A02031C872C882C9E
:10090E008C2CFF30AA000030AB0032082B02031DE6
:10091E00922C31082A020318952C962C9A2C320808
:10092E00AB003108AA003208F1003108F000833123
:10093E003C238431200027030319A62CA72CAC2CB2
:10094E000230A0000030A100B02C0130A000003019
:10095E00A100200883316523843171082000A60090
:10096E007008A500AD01AE01770878040319C02CFC
:10097E00C12CF82C78082602031DC72C77082502F7
:10098E000318CA2CCB2CF82C0330F0000030F100E9
:10099E0025087702F2002608783BF30084312124E3
:1009AE00843171082000AE007008AD002E08F100F1
:1009BE002D08F00031082A02F90032082B3BFA000C
:1009CE000730F935FA0D890BE82C7908F2007A0810
:1009DE00F30084312124843171082000A4007008B2
:1009EE00A3008331352384312000A201AF01B00171
:1009FE0020000E08F9000430F936890B032D790812
:100A0E000739AC0022082C0603190E2D0F2DD42DFC
:100A1E002C08A2000D1A142D152D182D2C08073C8C
:100A2E00AC00270803191C2D1D2D202D2C08073C6A
:100A3E00AC002C084A3E8600870101088F00013069
:100A4E00AF070030B03D2D082E0403192F2D302D89
:100A5E00AA2D2E083002031D362D2D082F02031845
:100A6E00392D3A2D562D3008F1002F08F0002408AC
:100A7E00F3002308F20083319C2384317008F900BF
:100A8E007108FA000730FA36F90C890B4A2D20004E
:100A9E0031087907A80032087A3DA900BB2D2E082F
:100AAE00FA002D08F900F935FA0D7A083002031D07
:100ABE00622D79082F020318652D662D6B2D2B08DC
:100ACE00A9002A08A800BB2D2E08F1002D08F00061
:100ADE000330F2000030F30083319C23843171081F
:100AEE0020003002031D7D2D70082F020318802D6B
:100AFE00812DA52D2E08FA002D08F900F935FA0DD5
:100B0E0079082F02F0007A08303BF1002408F30038
:100B1E002308F20083319C2384317008FB00710896
:100B2E00FC000730FC36FB0C890B992D7B0820004E
:100B3E002A02A8007C082B3BA900BB2D3208A90075
:100B4E003108A800BB2D0030833165238431700835
:100B5E00F9007108FA00FA36F90CFA36F90C790830
:100B6E002000A8007A08A90032082902031DC12D11
:100B7E00310828020318C42DC52DC92D3208A9002D
:100B8E003108A8002908F1002808F00083313C2321
:100B9E008431833135238431FF2C1118D72DD82D74
:100BAE00E62D3008FA002F08F9007A0E0F39F900F9
:100BBE00FA0179087A040319E52DE62DFF2C0C1A9B
:100BCE00E92DEA2DF22D0130F0000030F1008331D5
:100BDE003C238431F42D4A088F0020003008F800A1
:100BEE002F08F70008008331BB23853123009101C4
:100BFE0092013F309505151413082000B300B4017F
:100C0E003308BE003408BF000030230092000130CC
:100C1E0091003F309505151413082000B300B40160
:100C2E003308B400B3013308BE043408BF040D1DED
:100C3E00212E222E2A2E3E0A031D292E3F0A031D87
:100C4E00292E2A2EF42EBE01BF010030F700F80027
:100C5E00013084315B24853178082000C10077088B
:100C6E00C0004108803AB30080303302031D412E8C
:100C7E0001304002031C442E452E4A2E200041080E
:100C8E00BF004008BE0083317F2385310030F7005E
:100C9E00F800003084315B24853178082000C100D3
:100CAE007708C0003F08803AB3004108803A33020B
:100CBE00031D632E40083E020318662E672E6C2E0F
:100CCE0020004108BF004008BE0083317F238531DC
:100CDE000030F700F800013084315B24853178084C
:100CEE002000C1007708C0003F08803AB3004108D9
:100CFE00803A3302031D852E40083E020318882ECB
:100D0E00892E8E2E20004108BF004008BE00230011
:100D1E009518922E932E8E2E9101920120003E0850
:100D2E00230093003F309505200003108B1FA02E4B
:100D3E00A12EA22E03148B132300151555309600E9
:100D4E00AA309600951415112000031CAF2EB02E5C
:100D5E00B12E8B1723009518B52EB62EB12E00305E
:100D6E0092000130910020003F08230093003F3095
:100D7E009505200003108B1FC52EC62EC72E0314FB
:100D8E008B132300151555309600AA309600951436
:100D9E0015112000031CD42ED52EEF2E8B17EF2EFF
:100DAE0003108E1C03140318DD2EE02E20008E146B
:100DBE00E22E20008E1010302000B4003930B30027
:100DCE000D30890BE82EB30BE82EB40BE82E003253
:100DDE0020000D1DF32EF42ED72E83317F23853167
:100DEE002300910192013F30950515141308200040
:100DFE00B300B4013308BE003408BF000030230036
:100E0E009200013091003F30950515141308200013
:100E1E00B300B4013308B400B3013308BE04340880
:100E2E00BF04BA01BB01B801B901BC01BD01DC2F81
:100E3E008331E923853175082000B7007408B600A8
:100E4E003603370403192C2F2D2F342F023036067C
:100E5E003704031D332F342FDC2F3A033B040319C1
:100E6E00392F3A2F3F2F0130B8000030B900DC2F58
:100E7E000230B8000030B900DC2F3D08C1003C083C
:100E8E00C0003A083B04031D4D2F4E2F522FC001B8
:100E9E00C101BC01BD014108F8004008F700003057
:100EAE0084315B24853178082000C1007708C000AA
:100EBE004008BC024108BD3B3D08803AB30080307B
:100ECE003302031D6C2F6F303C02031C6F2F702FEB
:100EDE007A2F02302000BA000030BB000130B8007B
:100EEE000030B900DC2F2000BC01BD018E14023091
:100EFE00BA000030BB000330B8000030B900DC2F60
:100F0E008E103C083E02C0003D083F3BC1003A082F
:100F1E003B04031D932F942F982FC001C101BC01D8
:100F2E00BD014108F8004008F700013084315B2410
:100F3E00853178082000C1007708C0004008BC0742
:100F4E004108BD3D3C083E02B3003D083F3BB400A6
:100F5E003408803AB50080303502031DB82F6F304B
:100F6E003302031CBB2FBC2FC62F20003A083B04B4
:100F7E000319C22FC32FC62FBA01BB01822F013016
:100F8E002000BA000030BB003F08BD003E08BC0088
:100F9E00822F0C1ED32FD42FD02F4A088F008331CF
:100FAE007F2385312000B801B9013908003A0319B1
:100FBE00E12FDC2F3808003A03191F2F013A0319CD
:100FCE00872F033A0319442F013A0319D02FDC2F30
:100FDE00803102284D3084008330850042308600F7
:100FEE0000308700183083312F2387312000853160
:020FFE00FA2DCA
:020000040001F9
:04000E00E23FFF3F8F
:00000001FF
