:08000000803102288731F12F45
:10069C00FE0012001E00FE0B4F2B00342000181021
:1006AC0097019601111018140800013071020030E6
:1006BC0003197002031C632B642B682BFF30F000B2
:1006CC000030F1007008250091000800003405345A
:1006DC00033404340134063402340034E034A834D6
:1006EC00C434A43470346834D034E034E03470341E
:1006FC00D034C434A434A8346834E034F300730820
:10070C00F200F20DF20D21001D08720683397206FB
:10071C009D001D142830890B912B21009D149D18D0
:10072C00982B992B952B1C08F1001B08F000080046
:10073C00FB01FC0184310824833174087504031D0A
:10074C00A82BA92BAD2B0130FB070030FC3D7C08FE
:10075C00803AFA0080307A02031DB62B14307B02EB
:10076C00031CB92BBA2BA02B0800F401F501701C4B
:10077C00C02BC12BC52B7208F4077308F53D013053
:10078C00F235F30D890BC62B0130F136F00C890BC9
:10079C00CB2B70087104031DD42BD52BBD2B7508E6
:1007AC00F1007408F00008002F3023008C008D013C
:1007BC0090018F01F83021008E00FC308D0002304A
:1007CC008F00023020008F008E018C013F30210001
:1007DC008C0007309000073020009000A0302100E2
:1007EC009E003C30250093001E08BC3020009B006E
:1007FC00FF309B00FC309C05E0308F001C15303026
:10080C0098000800F80120000E087039F7008331B9
:10081C0054238431272C0C1A142C152C1A2C01302F
:10082C00F4000030F5003F2C0E087039F9007908FF
:10083C0077060319222C232C272C7908F70001307A
:10084C00F8072000111C2B2C2C2C112C033083317D
:10085C00842384317108F60078087602031C372C47
:10086C00382C3B2CF401F5013F2C0230F400003005
:10087C00F5000800F401F501700871040319472C08
:10088C00482C752C0130F600522C0130F035F10D4E
:10089C00890B4C2C0130F607F11F552C562C4B2C88
:1008AC000130F435F50D890B572C71087302031DBB
:1008BC00612C70087202031C642C652C6A2C700865
:1008CC00F2027108F33B74140130F136F00C890B11
:1008DC006B2C0130F602031D742C752C562C7508EC
:1008EC00F1007408F00008002000A70000308331EC
:1008FC00842384317008F9007108FA00FA36F90C77
:10090C00FA36F90C79082000AF007A08B0000430F0
:10091C008331842384317008F9007108FA00FA36A7
:10092C00F90CFA36F90C79082000AA007A08AB0009
:10093C0000302B02F13003192A02031CA62CA72C21
:10094C00AB2CFF30AA000030AB0030082B02031D8B
:10095C00B12C2F082A020318B42CB52CB92C300852
:10096C00AB002F08AA003008F1002F08F0008331EB
:10097C005B238431200027030319C52CC62CCB2CF8
:10098C000230A0000030A100CF2C0130A0000030BC
:10099C00A100200883318423843171082000A60033
:1009AC007008A500AD01AE01770878040319DF2C9F
:1009BC00E02C172D78082602031DE62C770825025B
:1009CC000318E92CEA2C172D0330F0000030F1004D
:1009DC0025087702F2002608783BF3008431402486
:1009EC00843171082000AE007008AD002E08F100B3
:1009FC002D08F0002F082A02F90030082B3BFA00D2
:100A0C000730F935FA0D890B072D7908F2007A08B1
:100A1C00F30084314024843171082000A400700854
:100A2C00A3008331542384312000A201B101B2010F
:100A3C000E08F9000430F936890B212D7908073995
:100A4C00AC0022082C0603192C2D2D2D4D2D2C0815
:100A5C00A2000D1A322D332D362D2C08073CAC007C
:100A6C00270803193A2D3B2D3E2D2C08073CAC00D2
:100A7C002C084C3E8600870101088F0083315423DB
:100A8C00843101302000B1070030B23D1E2D2D08FD
:100A9C002E040319522D532DCD2D2E083202031D79
:100AAC00592D2D08310203185C2D5D2D792D32083E
:100ABC00F1003108F0002408F3002308F200833120
:100ACC00BB2384317008F9007108FA000730FA363C
:100ADC00F90C890B6D2D20002F087907A800300820
:100AEC007A3DA900DE2D2E08FA002D08F900F93503
:100AFC00FA0D7A083202031D852D7908310203188C
:100B0C00882D892D8E2D2B08A9002A08A800DE2DF2
:100B1C002E08F1002D08F0000330F2000030F30035
:100B2C008331BB238431710820003202031DA02DB8
:100B3C00700831020318A32DA42DC82D2E08FA001D
:100B4C002D08F900F935FA0D79083102F0007A0810
:100B5C00323BF1002408F3002308F2008331BB235D
:100B6C0084317008FB007108FC000730FC36FB0C6C
:100B7C00890BBC2D7B0820002A02A8007C082B3B8B
:100B8C00A900DE2D3008A9002F08A800DE2D0030AA
:100B9C008331842384317008F9007108FA00FA3625
:100BAC00F90CFA36F90C79082000A8007A08A9008B
:100BBC0030082902031DE42D2F0828020318E72D05
:100BCC00E82DEC2D3008A9002F08A8002908F10009
:100BDC002808F00083315B23843120001118F72D95
:100BEC00F82D112E770878040319FD2DFE2D082EF3
:100BFC0078083202031D042E770831020318072EE1
:100C0C00082E112E0F303202A03003193102031CB2
:100C1C00102E112E1E2D0C1A142E152E1D2E0130D9
:100C2C00F0000030F10083315B2384311F2E4C081F
:100C3C008F0020003208F8003108F70008008331DB
:100C4C00DA2386312300910192013F30950515146A
:100C5C0013082000B300B4013308C2003408C300E9
:100C6C00003023009200013091003F30950515149F
:100C7C0013082000B300B4013308B400B3013308E7
:100C8C00C2043408C3040D1D4C2E4D2E552E420AA1
:100C9C00031D542E430A031D542E552E1F2FC20123
:100CAC00C3010030F700F800013084317A2486311A
:100CBC0078082000C1007708C0004108803AB300D2
:100CCC0080303302031D6C2E01304002031C6F2E4A
:100CDC00702E752E20004108C3004008C2008331DD
:100CEC009E2386310030F700F800003084317A24DE
:100CFC00863178082000C1007708C0004308803A8C
:100D0C00B3004108803A3302031D8E2E4008420284
:100D1C000318912E922E972E20004108C3004008F4
:100D2C00C20083319E2386310030F700F800013079
:100D3C0084317A24863178082000C1007708C000FD
:100D4C004308803AB3004108803A3302031DB02EA9
:100D5C00400842020318B32EB42EB92E20004108CD
:100D6C00C3004008C20023009518BD2EBE2EB92E1C
:100D7C009101920120004208230093003F30950519
:100D8C00200003108B1FCB2ECC2ECD2E03148B13D7
:100D9C002300151555309600AA30960095141511A0
:100DAC002000031CDA2EDB2EDC2E8B17230095186B
:100DBC00E02EE12EDC2E003092000130910020005C
:100DCC004308230093003F309505200003108B1F30
:100DDC00F02EF12EF22E03148B1323001515553023
:100DEC009600AA309600951415112000031CFF2EB6
:100DFC00002F1A2F8B171A2F03108E1C0314031895
:100E0C00082F0B2F20008E140D2F20008E10103069
:100E1C002000B4003930B3000D30890B132FB30B05
:100E2C00132FB40B132F003220000D1D1E2F1F2F5C
:100E3C00022F83319E2386312300910192013F3092
:100E4C009505151413082000B300B4013308C20033
:100E5C003408C300003023009200013091003F3071
:100E6C009505151413082000B300B4013308B40021
:100E7C00B3013308C2043408C304BE01BF0120000F
:100E8C00BC01BD01DC2F843108248631750820009B
:100E9C00BB007408BA003A033B040319562F572FB2
:100EAC005E2F02303A063B04031D5D2F5E2FDC2FB4
:100EBC003E033F040319632F642F692F0130BC00DC
:100ECC000030BD00DC2F0230BC000030BD00DC2F38
:100EDC003E083F040319732F742F792F4308B70072
:100EEC004208B6007B2FB601B7013708F800360868
:100EFC00F700003084317A24863178082000C10054
:100F0C007708C00040084202B3004108433BB400DC
:100F1C003408803AB50080303502031D972F81309C
:100F2C003302031C9A2F9B2FB02F20004108F8008E
:100F3C004008F700013084317A248631780820008B
:100F4C00C1007708C0008E1001302000BE000030B8
:100F5C00BF00B62F20008E140230BE000030BF0040
:100F6C000330BC000030BD00DC2F8E103E083F0467
:100F7C000319C12FC22FC72F4308B9004208B8006C
:100F8C00C92FB801B9013908F8003808F700013049
:100F9C0084317A248631AA2F0C1ED52FD62FD22F2E
:100FAC004C088F0083319E238631452F3D08003A33
:100FBC000319E12FDC2F3C08003A0319492F013AA1
:100FCC000319BB2F033A03196E2F013A0319D22FC1
:100FDC00DC2F803102286C30840083308500443053
:100FEC00860000308700183083314E238731200073
:040FFC008631252EE7
:020000040001F9
:04000E00E23FFF3F8F
:00000001FF
